{
  "_format": "hh-sol-artifact-1",
  "contractName": "Lock",
  "sourceName": "contracts/Lock.sol",
  "abi": [
    {
      "inputs": [
        {
          "internalType": "address",
          "name": "_tokenAddress",
          "type": "address"
        }
      ],
      "stateMutability": "nonpayable",
      "type": "constructor"
    },
    {
      "inputs": [
        {
          "internalType": "uint256",
          "name": "amount",
          "type": "uint256"
        }
      ],
      "name": "lockTokens",
      "outputs": [],
      "stateMutability": "nonpayable",
      "type": "function"
    },
    {
      "inputs": [],
      "name": "lockerCount",
      "outputs": [
        {
          "internalType": "uint256",
          "name": "",
          "type": "uint256"
        }
      ],
      "stateMutability": "view",
      "type": "function"
    },
    {
      "inputs": [
        {
          "internalType": "address",
          "name": "",
          "type": "address"
        }
      ],
      "name": "lockers",
      "outputs": [
        {
          "internalType": "uint256",
          "name": "",
          "type": "uint256"
        }
      ],
      "stateMutability": "view",
      "type": "function"
    },
    {
      "inputs": [],
      "name": "totalLocked",
      "outputs": [
        {
          "internalType": "uint256",
          "name": "",
          "type": "uint256"
        }
      ],
      "stateMutability": "view",
      "type": "function"
    },
    {
      "inputs": [],
      "name": "withdrawTokens",
      "outputs": [],
      "stateMutability": "nonpayable",
      "type": "function"
    }
  ],
  "bytecode": "0x608060405234801561001057600080fd5b50604051610ae8380380610ae8833981810160405281019061003291906100db565b806000806101000a81548173ffffffffffffffffffffffffffffffffffffffff021916908373ffffffffffffffffffffffffffffffffffffffff16021790555050610108565b600080fd5b600073ffffffffffffffffffffffffffffffffffffffff82169050919050565b60006100a88261007d565b9050919050565b6100b88161009d565b81146100c357600080fd5b50565b6000815190506100d5816100af565b92915050565b6000602082840312156100f1576100f0610078565b5b60006100ff848285016100c6565b91505092915050565b6109d1806101176000396000f3fe608060405234801561001057600080fd5b50600436106100575760003560e01c80632c8e7a211461005c578063568914121461008c5780636e27d889146100aa5780638d8f2adb146100c6578063ccd96eb6146100d0575b600080fd5b6100766004803603810190610071919061058a565b6100ee565b60405161008391906105d0565b60405180910390f35b610094610106565b6040516100a191906105d0565b60405180910390f35b6100c460048036038101906100bf9190610617565b61010c565b005b6100ce610307565b005b6100d8610521565b6040516100e591906105d0565b60405180910390f35b60036020528060005260406000206000915090505481565b60025481565b6000811161014f576040517f08c379a0000000000000000000000000000000000000000000000000000000008152600401610146906106c7565b60405180910390fd5b6000600360003373ffffffffffffffffffffffffffffffffffffffff1673ffffffffffffffffffffffffffffffffffffffff16815260200190815260200160002054116101af57600160008154809291906101a990610716565b91905055505b80600260008282546101c1919061075e565b9250508190555080600360003373ffffffffffffffffffffffffffffffffffffffff1673ffffffffffffffffffffffffffffffffffffffff1681526020019081526020016000206000828254610217919061075e565b9250508190555060008060009054906101000a900473ffffffffffffffffffffffffffffffffffffffff1673ffffffffffffffffffffffffffffffffffffffff166323b872dd3330856040518463ffffffff1660e01b815260040161027e939291906107a1565b6020604051808303816000875af115801561029d573d6000803e3d6000fd5b505050506040513d601f19601f820116820180604052508101906102c19190610810565b905080610303576040517f08c379a00000000000000000000000000000000000000000000000000000000081526004016102fa90610889565b60405180910390fd5b5050565b6000600360003373ffffffffffffffffffffffffffffffffffffffff1673ffffffffffffffffffffffffffffffffffffffff1681526020019081526020016000205411610389576040517f08c379a0000000000000000000000000000000000000000000000000000000008152600401610380906108f5565b60405180910390fd5b6000600360003373ffffffffffffffffffffffffffffffffffffffff1673ffffffffffffffffffffffffffffffffffffffff168152602001908152602001600020549050600360003373ffffffffffffffffffffffffffffffffffffffff1673ffffffffffffffffffffffffffffffffffffffff1681526020019081526020016000206000905580600260008282546104229190610915565b925050819055506001600081548092919061043c90610949565b919050555060008054906101000a900473ffffffffffffffffffffffffffffffffffffffff1673ffffffffffffffffffffffffffffffffffffffff1663a9059cbb33836040518363ffffffff1660e01b815260040161049c929190610972565b6020604051808303816000875af11580156104bb573d6000803e3d6000fd5b505050506040513d601f19601f820116820180604052508101906104df9190610810565b61051e576040517f08c379a000000000000000000000000000000000000000000000000000000000815260040161051590610889565b60405180910390fd5b50565b60015481565b600080fd5b600073ffffffffffffffffffffffffffffffffffffffff82169050919050565b60006105578261052c565b9050919050565b6105678161054c565b811461057257600080fd5b50565b6000813590506105848161055e565b92915050565b6000602082840312156105a05761059f610527565b5b60006105ae84828501610575565b91505092915050565b6000819050919050565b6105ca816105b7565b82525050565b60006020820190506105e560008301846105c1565b92915050565b6105f4816105b7565b81146105ff57600080fd5b50565b600081359050610611816105eb565b92915050565b60006020828403121561062d5761062c610527565b5b600061063b84828501610602565b91505092915050565b600082825260208201905092915050565b7f546f6b656e20616d6f756e74206d75737420626520677265617465722074686160008201527f6e20302e00000000000000000000000000000000000000000000000000000000602082015250565b60006106b1602483610644565b91506106bc82610655565b604082019050919050565b600060208201905081810360008301526106e0816106a4565b9050919050565b7f4e487b7100000000000000000000000000000000000000000000000000000000600052601160045260246000fd5b6000610721826105b7565b91507fffffffffffffffffffffffffffffffffffffffffffffffffffffffffffffffff8203610753576107526106e7565b5b600182019050919050565b6000610769826105b7565b9150610774836105b7565b925082820190508082111561078c5761078b6106e7565b5b92915050565b61079b8161054c565b82525050565b60006060820190506107b66000830186610792565b6107c36020830185610792565b6107d060408301846105c1565b949350505050565b60008115159050919050565b6107ed816107d8565b81146107f857600080fd5b50565b60008151905061080a816107e4565b92915050565b60006020828403121561082657610825610527565b5b6000610834848285016107fb565b91505092915050565b7f5472616e73666572206661696c65642e00000000000000000000000000000000600082015250565b6000610873601083610644565b915061087e8261083d565b602082019050919050565b600060208201905081810360008301526108a281610866565b9050919050565b7f4e6f7420656e6f75676820746f6b656e2e000000000000000000000000000000600082015250565b60006108df601183610644565b91506108ea826108a9565b602082019050919050565b6000602082019050818103600083015261090e816108d2565b9050919050565b6000610920826105b7565b915061092b836105b7565b9250828203905081811115610943576109426106e7565b5b92915050565b6000610954826105b7565b915060008203610967576109666106e7565b5b600182039050919050565b60006040820190506109876000830185610792565b61099460208301846105c1565b939250505056fea2646970667358221220b358ff6d46ca559c91e531f65aaed462b2f57a53b9e61d8cbae7f226b43afb8b64736f6c63430008140033",
  "linkReferences": {},
  "deployedLinkReferences": {}
}